{
  "address": "0x69E974fD8FE0016CCDB059f6e1De302Ff690A3A5",
  "abi": [
    {
      "inputs": [
        {
          "internalType": "address",
          "name": "tokenAddress",
          "type": "address"
        },
        {
          "internalType": "uint64",
          "name": "_penaltyDurationSeconds",
          "type": "uint64"
        }
      ],
      "stateMutability": "nonpayable",
      "type": "constructor"
    },
    {
      "inputs": [],
      "name": "AmountExceedsAvailable",
      "type": "error"
    },
    {
      "inputs": [],
      "name": "DappTargetNotSet",
      "type": "error"
    },
    {
      "inputs": [],
      "name": "FundNotActive",
      "type": "error"
    },
    {
      "inputs": [],
      "name": "FundNotFound",
      "type": "error"
    },
    {
      "inputs": [],
      "name": "InvalidArrayLength",
      "type": "error"
    },
    {
      "inputs": [],
      "name": "InvalidFundTypeDuration",
      "type": "error"
    },
    {
      "inputs": [],
      "name": "NativeRequired",
      "type": "error"
    },
    {
      "inputs": [],
      "name": "NativeTransferFailed",
      "type": "error"
    },
    {
      "inputs": [],
      "name": "NotBeneficiary",
      "type": "error"
    },
    {
      "inputs": [],
      "name": "NotMatured",
      "type": "error"
    },
    {
      "inputs": [],
      "name": "NotOwnerOrPrivileged",
      "type": "error"
    },
    {
      "inputs": [],
      "name": "NotPrivileged",
      "type": "error"
    },
    {
      "inputs": [],
      "name": "OnlyOwner",
      "type": "error"
    },
    {
      "inputs": [],
      "name": "TokenRequired",
      "type": "error"
    },
    {
      "inputs": [],
      "name": "TokenTransferFailed",
      "type": "error"
    },
    {
      "anonymous": false,
      "inputs": [
        {
          "indexed": true,
          "internalType": "uint256",
          "name": "fundId",
          "type": "uint256"
        },
        {
          "indexed": true,
          "internalType": "address",
          "name": "from",
          "type": "address"
        },
        {
          "indexed": false,
          "internalType": "uint256",
          "name": "amount",
          "type": "uint256"
        },
        {
          "indexed": false,
          "internalType": "bool",
          "name": "native",
          "type": "bool"
        }
      ],
      "name": "Deposited",
      "type": "event"
    },
    {
      "anonymous": false,
      "inputs": [
        {
          "indexed": true,
          "internalType": "uint256",
          "name": "fundId",
          "type": "uint256"
        },
        {
          "indexed": false,
          "internalType": "enum SavesJVN.FundType",
          "name": "fundType",
          "type": "uint8"
        },
        {
          "indexed": true,
          "internalType": "address",
          "name": "owner",
          "type": "address"
        },
        {
          "indexed": false,
          "internalType": "uint64",
          "name": "startTime",
          "type": "uint64"
        },
        {
          "indexed": false,
          "internalType": "uint64",
          "name": "endTime",
          "type": "uint64"
        }
      ],
      "name": "FundCreated",
      "type": "event"
    },
    {
      "anonymous": false,
      "inputs": [
        {
          "indexed": true,
          "internalType": "address",
          "name": "user",
          "type": "address"
        },
        {
          "indexed": true,
          "internalType": "uint256",
          "name": "fundId",
          "type": "uint256"
        },
        {
          "indexed": false,
          "internalType": "uint256",
          "name": "amount",
          "type": "uint256"
        }
      ],
      "name": "Staked",
      "type": "event"
    },
    {
      "anonymous": false,
      "inputs": [
        {
          "indexed": true,
          "internalType": "address",
          "name": "user",
          "type": "address"
        },
        {
          "indexed": true,
          "internalType": "uint256",
          "name": "fundId",
          "type": "uint256"
        },
        {
          "indexed": false,
          "internalType": "uint256",
          "name": "amount",
          "type": "uint256"
        },
        {
          "indexed": false,
          "internalType": "uint256",
          "name": "penalty",
          "type": "uint256"
        }
      ],
      "name": "Unstaked",
      "type": "event"
    },
    {
      "anonymous": false,
      "inputs": [
        {
          "indexed": true,
          "internalType": "address",
          "name": "user",
          "type": "address"
        },
        {
          "indexed": true,
          "internalType": "uint256",
          "name": "fundId",
          "type": "uint256"
        },
        {
          "indexed": true,
          "internalType": "address",
          "name": "to",
          "type": "address"
        },
        {
          "indexed": false,
          "internalType": "uint256",
          "name": "amount",
          "type": "uint256"
        }
      ],
      "name": "Withdrawn",
      "type": "event"
    },
    {
      "inputs": [
        {
          "internalType": "address",
          "name": "to",
          "type": "address"
        },
        {
          "internalType": "uint256",
          "name": "amount",
          "type": "uint256"
        }
      ],
      "name": "_sendTokens",
      "outputs": [],
      "stateMutability": "nonpayable",
      "type": "function"
    },
    {
      "inputs": [
        {
          "internalType": "enum SavesJVN.FundType",
          "name": "fundType",
          "type": "uint8"
        },
        {
          "internalType": "uint64",
          "name": "durationSeconds",
          "type": "uint64"
        },
        {
          "internalType": "address[4]",
          "name": "privilegedWallets",
          "type": "address[4]"
        },
        {
          "internalType": "address[4]",
          "name": "beneficiaryWallets",
          "type": "address[4]"
        }
      ],
      "name": "createFund",
      "outputs": [
        {
          "internalType": "uint256",
          "name": "fundId",
          "type": "uint256"
        }
      ],
      "stateMutability": "nonpayable",
      "type": "function"
    },
    {
      "inputs": [
        {
          "internalType": "uint256",
          "name": "fundId",
          "type": "uint256"
        }
      ],
      "name": "depositNative",
      "outputs": [],
      "stateMutability": "payable",
      "type": "function"
    },
    {
      "inputs": [
        {
          "internalType": "uint256",
          "name": "fundId",
          "type": "uint256"
        },
        {
          "internalType": "uint256",
          "name": "amount",
          "type": "uint256"
        }
      ],
      "name": "depositToken",
      "outputs": [],
      "stateMutability": "nonpayable",
      "type": "function"
    },
    {
      "inputs": [
        {
          "internalType": "uint256",
          "name": "fundId",
          "type": "uint256"
        },
        {
          "internalType": "uint128",
          "name": "amount",
          "type": "uint128"
        }
      ],
      "name": "endStake",
      "outputs": [],
      "stateMutability": "nonpayable",
      "type": "function"
    },
    {
      "inputs": [
        {
          "internalType": "uint256",
          "name": "",
          "type": "uint256"
        }
      ],
      "name": "funds",
      "outputs": [
        {
          "internalType": "enum SavesJVN.FundType",
          "name": "fundType",
          "type": "uint8"
        },
        {
          "internalType": "address",
          "name": "owner",
          "type": "address"
        },
        {
          "internalType": "uint64",
          "name": "startTime",
          "type": "uint64"
        },
        {
          "internalType": "uint64",
          "name": "endTime",
          "type": "uint64"
        },
        {
          "internalType": "uint256",
          "name": "balance",
          "type": "uint256"
        },
        {
          "internalType": "uint256",
          "name": "stakedBalance",
          "type": "uint256"
        },
        {
          "internalType": "address",
          "name": "dappTarget",
          "type": "address"
        },
        {
          "internalType": "bool",
          "name": "active",
          "type": "bool"
        }
      ],
      "stateMutability": "view",
      "type": "function"
    },
    {
      "inputs": [
        {
          "internalType": "uint256",
          "name": "fundId",
          "type": "uint256"
        }
      ],
      "name": "getFund",
      "outputs": [
        {
          "internalType": "enum SavesJVN.FundType",
          "name": "fundType",
          "type": "uint8"
        },
        {
          "internalType": "address",
          "name": "owner",
          "type": "address"
        },
        {
          "internalType": "uint64",
          "name": "startTime",
          "type": "uint64"
        },
        {
          "internalType": "uint64",
          "name": "endTime",
          "type": "uint64"
        },
        {
          "internalType": "address[4]",
          "name": "privileged",
          "type": "address[4]"
        },
        {
          "internalType": "address[4]",
          "name": "beneficiaries",
          "type": "address[4]"
        },
        {
          "internalType": "uint256",
          "name": "balance",
          "type": "uint256"
        },
        {
          "internalType": "uint256",
          "name": "stakedBalance",
          "type": "uint256"
        },
        {
          "internalType": "bool",
          "name": "active",
          "type": "bool"
        }
      ],
      "stateMutability": "view",
      "type": "function"
    },
    {
      "inputs": [
        {
          "internalType": "address",
          "name": "user",
          "type": "address"
        }
      ],
      "name": "getFundsByUser",
      "outputs": [
        {
          "internalType": "uint256[]",
          "name": "",
          "type": "uint256[]"
        }
      ],
      "stateMutability": "view",
      "type": "function"
    },
    {
      "inputs": [
        {
          "internalType": "address",
          "name": "user",
          "type": "address"
        },
        {
          "internalType": "uint256",
          "name": "fundId",
          "type": "uint256"
        }
      ],
      "name": "isUserInFund",
      "outputs": [
        {
          "internalType": "bool",
          "name": "",
          "type": "bool"
        }
      ],
      "stateMutability": "view",
      "type": "function"
    },
    {
      "inputs": [],
      "name": "nextFundId",
      "outputs": [
        {
          "internalType": "uint256",
          "name": "",
          "type": "uint256"
        }
      ],
      "stateMutability": "view",
      "type": "function"
    },
    {
      "inputs": [],
      "name": "penaltyDuration",
      "outputs": [
        {
          "internalType": "uint64",
          "name": "",
          "type": "uint64"
        }
      ],
      "stateMutability": "view",
      "type": "function"
    },
    {
      "inputs": [
        {
          "internalType": "uint256",
          "name": "fundId",
          "type": "uint256"
        },
        {
          "internalType": "address",
          "name": "dapp",
          "type": "address"
        }
      ],
      "name": "setDappTarget",
      "outputs": [],
      "stateMutability": "nonpayable",
      "type": "function"
    },
    {
      "inputs": [
        {
          "internalType": "uint256",
          "name": "fundId",
          "type": "uint256"
        },
        {
          "internalType": "uint128",
          "name": "amount",
          "type": "uint128"
        }
      ],
      "name": "stakeASTR",
      "outputs": [],
      "stateMutability": "nonpayable",
      "type": "function"
    },
    {
      "inputs": [],
      "name": "token",
      "outputs": [
        {
          "internalType": "address",
          "name": "",
          "type": "address"
        }
      ],
      "stateMutability": "view",
      "type": "function"
    },
    {
      "inputs": [
        {
          "internalType": "uint256",
          "name": "fundId",
          "type": "uint256"
        },
        {
          "internalType": "uint256",
          "name": "amount",
          "type": "uint256"
        },
        {
          "internalType": "address",
          "name": "to",
          "type": "address"
        }
      ],
      "name": "withdrawToBeneficiary",
      "outputs": [],
      "stateMutability": "nonpayable",
      "type": "function"
    },
    {
      "stateMutability": "payable",
      "type": "receive"
    }
  ],
  "transactionHash": "0xb622cd8e604cd529aa8bf3af2dc3dca2de621ce7ac2274f0aedfc00158be6490",
  "args": [
    "0x8A567e2aE79CA692Bd748aB832081C45de4041eA",
    15552000
  ],
  "numDeployments": 1,
  "solcInputHash": "ff82c8932e24fb1ac8b41ae3e3bb1c2d",
  "bytecode": "0x60e06040523480156200001157600080fd5b506040516200253138038062002531833981016040819052620000349162000058565b6001600160a01b039091166080526001600160401b031660c0523360a052620000ad565b600080604083850312156200006c57600080fd5b82516001600160a01b03811681146200008457600080fd5b60208401519092506001600160401b0381168114620000a257600080fd5b809150509250929050565b60805160a05160c0516124156200011c6000396000610166015260006110ce01526000818161036b015281816103a7015281816109b601528181610bf001528181610cc301528181610ece01528181610f880152818161110e015281816111b7015261128d01526124156000f3fe6080604052600436106100bc5760003560e01c80630c7a4393146100c8578063461078ee146100ea57806352c8df641461011f5780635aa1326c14610154578063608fc37a146101a057806361fb1147146101b35780637b8e8895146101d35780639d2d04d114610268578063a55b17f514610288578063a5b4665b146102a8578063ab81e23f146102c8578063b6218419146102e8578063ceee092c14610316578063f2d0b3161461032c578063fc0c546a1461035957600080fd5b366100c357005b600080fd5b3480156100d457600080fd5b506100e86100e3366004611c65565b6103a5565b005b3480156100f657600080fd5b5061010a610105366004611cbd565b61080b565b60405190151581526020015b60405180910390f35b34801561012b57600080fd5b5061013f61013a366004611ce7565b610839565b60405161011699989796959493929190611d69565b34801561016057600080fd5b506101887f000000000000000000000000000000000000000000000000000000000000000081565b6040516001600160401b039091168152602001610116565b6100e86101ae366004611ce7565b610979565b3480156101bf57600080fd5b506100e86101ce366004611de0565b610aa3565b3480156101df57600080fd5b506102546101ee366004611ce7565b6001602081905260009182526040909120805491810154600a820154600b830154600c9093015460ff808616956001600160a01b0361010082048116966001600160401b03600160a81b9093048316969092169493919290821691600160a01b90041688565b604051610116989796959493929190611e15565b34801561027457600080fd5b506100e8610283366004611e6f565b610e65565b34801561029457600080fd5b506100e86102a3366004611cbd565b6110c3565b3480156102b457600080fd5b506100e86102c3366004611c65565b61128b565b3480156102d457600080fd5b506100e86102e3366004611e91565b61169a565b3480156102f457600080fd5b50610308610303366004611ece565b611771565b604051908152602001610116565b34801561032257600080fd5b5061030860005481565b34801561033857600080fd5b5061034c610347366004611f39565b611ac5565b6040516101169190611f5b565b34801561036557600080fd5b5061038d7f000000000000000000000000000000000000000000000000000000000000000081565b6040516001600160a01b039091168152602001610116565b7f00000000000000000000000000000000000000000000000000000000000000006001600160a01b0316156103ed57604051631ab0789b60e21b815260040160405180910390fd5b6000828152600160205260409020805461010090046001600160a01b03166104285760405163f5b9e66160e01b815260040160405180910390fd5b600c810154600160a01b900460ff166104545760405163c8c1965760e01b815260040160405180910390fd5b60408051608081019182905261049791600284019060049082845b81546001600160a01b0316815260019091019060200180831161046f57505050505033611b31565b6104b45760405163400db76f60e01b815260040160405180910390fd5b600c8101546001600160a01b03166104df57604051636feb853560e01b815260040160405180910390fd5b6001600160801b0382161580610501575080600b0154826001600160801b0316115b1561051f5760405163339cee2160e01b815260040160405180910390fd5b6040805180820182526000808252600c84015492519092602080840192610550926001600160a01b03169101611f9f565b60408051601f1981840301815291815291525163332dda3360e01b81529091506150019063332dda339061058a9084908790600401612007565b6020604051808303816000875af19250505080156105c5575060408051601f3d908101601f191682019092526105c291810190612050565b60015b610684576105d1612072565b806308c379a00361063057506105e56120d0565b806105f05750610632565b806040516020016106019190612159565b60408051601f198184030181529082905262461bcd60e51b825261062791600401612190565b60405180910390fd5b505b3d80801561065c576040519150601f19603f3d011682016040523d82523d6000602084013e610661565b606091505b5061066b81611b8f565b60405162461bcd60e51b81526004016106279190612190565b806106c25760405162461bcd60e51b815260206004820152600e60248201526d1d5b9cdd185ad94819985a5b195960921b6044820152606401610627565b5050604051634e7b578b60e01b815261500190634e7b578b906106e99085906004016121a3565b6020604051808303816000875af1925050508015610724575060408051601f3d908101601f1916820190925261072191810190612050565b60015b61076057610730612072565b806308c379a00361063057506107446120d0565b8061074f5750610632565b8060405160200161060191906121b7565b8061079d5760405162461bcd60e51b815260206004820152600d60248201526c1d5b9b1bd8dac819985a5b1959609a1b6044820152606401610627565b50816001600160801b031681600b0160008282546107bb9190612203565b9091555050604080516001600160801b038416815260006020820152849133917f204fccf0d92ed8d48f204adb39b2e81e92bad0dedb93f5716ca9478cfb57de00910160405180910390a3505050565b6001600160a01b038216600090815260036020908152604080832084845290915290205460ff165b92915050565b600080600080610847611bdc565b61084f611bdc565b600087815260016020526040812080548291829161010090046001600160a01b031661088e5760405163f5b9e66160e01b815260040160405180910390fd5b80546001820154600a830154600b840154600c85015460408051608081019182905260ff808816976001600160a01b03610100820416976001600160401b03600160a81b90920482169791169560028b019560068c019592949193600160a01b9091041691869060049082845b81546001600160a01b031681526001909101906020018083116108fb57505060408051608081019182905294995088935060049250905082845b81546001600160a01b031681526001909101906020018083116109355750505050509350995099509950995099509950995099509950509193959799909294969850565b6000818152600160205260409020805461010090046001600160a01b03166109b45760405163f5b9e66160e01b815260040160405180910390fd5b7f00000000000000000000000000000000000000000000000000000000000000006001600160a01b0316156109fc57604051631ab0789b60e21b815260040160405180910390fd5b600c810154600160a01b900460ff16610a285760405163c8c1965760e01b815260040160405180910390fd5b34600003610a495760405163339cee2160e01b815260040160405180910390fd5b3481600a016000828254610a5d9190612216565b90915550506040805134815260016020820152339184917ffb62dc8e31b4ad52979baaf228d2708328e3cb09f9e18cb91b30ed3c6440c126910160405180910390a35050565b6000838152600160205260409020805461010090046001600160a01b0316610ade5760405163f5b9e66160e01b815260040160405180910390fd5b600c810154600160a01b900460ff16610b0a5760405163c8c1965760e01b815260040160405180910390fd5b6040805160808101918290526002830180546001600160a01b03168252610b4892600490600386016020850180831161046f57505050505033611b31565b610b655760405163400db76f60e01b815260040160405180910390fd5b60018101546001600160401b0316421015610b935760405163111c440960e01b815260040160405180910390fd5b600081600b015482600a0154610ba99190612203565b9050831580610bb757508084115b15610bd55760405163339cee2160e01b815260040160405180910390fd5b8382600a016000828254610be99190612203565b90915550507f00000000000000000000000000000000000000000000000000000000000000006001600160a01b0316610cbe576000836001600160a01b03168560405160006040518083038185875af1925050503d8060008114610c69576040519150601f19603f3d011682016040523d82523d6000602084013e610c6e565b606091505b5050905080610cb85760405162461bcd60e51b815260206004820152601660248201527513985d1a5d99481d1c985b9cd9995c8819985a5b195960521b6044820152606401610627565b50610e10565b6000807f00000000000000000000000000000000000000000000000000000000000000006001600160a01b03167fa9059cbb2ab09eb219583f4a59a5d0623ade346d962bcd4e46b11da047c9049b8688604051602401610d1f929190612229565b60408051601f198184030181529181526020820180516001600160e01b03166001600160e01b0319909416939093179092529051610d5d9190612242565b6000604051808303816000865af19150503d8060008114610d9a576040519150601f19603f3d011682016040523d82523d6000602084013e610d9f565b606091505b5091509150818015610dc9575080511580610dc9575080806020019051810190610dc99190612050565b610e0d5760405162461bcd60e51b8152602060048201526015602482015274115490cc8c081d1c985b9cd9995c8819985a5b1959605a1b6044820152606401610627565b50505b826001600160a01b031685336001600160a01b03167f6562355720ad5e9816350753de199edab487334dc9b97f1b15e35e1907ca7ed587604051610e5691815260200190565b60405180910390a45050505050565b6000828152600160205260409020805461010090046001600160a01b0316610ea05760405163f5b9e66160e01b815260040160405180910390fd5b600c810154600160a01b900460ff16610ecc5760405163c8c1965760e01b815260040160405180910390fd5b7f00000000000000000000000000000000000000000000000000000000000000006001600160a01b0316610f135760405163a4f47c3760e01b815260040160405180910390fd5b81600003610f345760405163339cee2160e01b815260040160405180910390fd5b60408051336024820152306044820152606480820185905282518083039091018152608490910182526020810180516001600160e01b03166323b872dd60e01b179052905160009182916001600160a01b037f00000000000000000000000000000000000000000000000000000000000000001691610fb291612242565b6000604051808303816000865af19150503d8060008114610fef576040519150601f19603f3d011682016040523d82523d6000602084013e610ff4565b606091505b509150915081801561101e57508051158061101e57508080602001905181019061101e9190612050565b6110665760405162461bcd60e51b8152602060048201526019602482015278115490cc8c081d1c985b9cd9995c919c9bdb4819985a5b1959603a1b6044820152606401610627565b8383600a01600082825461107a9190612216565b90915550506040805185815260006020820152339187917ffb62dc8e31b4ad52979baaf228d2708328e3cb09f9e18cb91b30ed3c6440c126910160405180910390a35050505050565b336001600160a01b037f0000000000000000000000000000000000000000000000000000000000000000161461110c57604051635fc483c560e01b815260040160405180910390fd5b7f00000000000000000000000000000000000000000000000000000000000000006001600160a01b03166111b3576000826001600160a01b03168260405160006040518083038185875af1925050503d8060008114611187576040519150601f19603f3d011682016040523d82523d6000602084013e61118c565b606091505b50509050806111ae57604051633d2cec6f60e21b815260040160405180910390fd5b505050565b60007f00000000000000000000000000000000000000000000000000000000000000006001600160a01b031683836040516024016111f2929190612229565b60408051601f198184030181529181526020820180516001600160e01b031663a9059cbb60e01b179052516112279190612242565b6000604051808303816000865af19150503d8060008114611264576040519150601f19603f3d011682016040523d82523d6000602084013e611269565b606091505b50509050806111ae5760405163022e258160e11b815260040160405180910390fd5b7f00000000000000000000000000000000000000000000000000000000000000006001600160a01b0316156112d357604051631ab0789b60e21b815260040160405180910390fd5b6000828152600160205260409020805461010090046001600160a01b031661130e5760405163f5b9e66160e01b815260040160405180910390fd5b600c810154600160a01b900460ff1661133a5760405163c8c1965760e01b815260040160405180910390fd5b6040805160808101918290526002830180546001600160a01b0316825261137892600490600386016020850180831161046f57505050505033611b31565b6113955760405163400db76f60e01b815260040160405180910390fd5b600c8101546001600160a01b03166113c057604051636feb853560e01b815260040160405180910390fd5b600081600b015482600a01546113d69190612203565b90506001600160801b03831615806113f6575080836001600160801b0316115b156114145760405163339cee2160e01b815260040160405180910390fd5b826001600160801b031647101561143e57604051633d2cec6f60e21b815260040160405180910390fd5b60405163e564c2ff60e01b81526150019063e564c2ff906114639086906004016121a3565b6020604051808303816000875af192505050801561149e575060408051601f3d908101601f1916820190925261149b91810190612050565b60015b6114da576114aa612072565b806308c379a00361063057506114be6120d0565b806114c95750610632565b80604051602001610601919061225e565b806115155760405162461bcd60e51b815260206004820152600b60248201526a1b1bd8dac819985a5b195960aa1b6044820152606401610627565b506040805180820182526000808252600c85015492519092602080840192611547926001600160a01b03169101611f9f565b60408051601f19818403018152918152915251637e70e1cf60e01b815290915061500190637e70e1cf906115819084908890600401612007565b6020604051808303816000875af19250505080156115bc575060408051601f3d908101601f191682019092526115b991810190612050565b60015b6115f8576115c8612072565b806308c379a00361063057506115dc6120d0565b806115e75750610632565b806040516020016106019190612292565b806116345760405162461bcd60e51b815260206004820152600c60248201526b1cdd185ad94819985a5b195960a21b6044820152606401610627565b5050826001600160801b031682600b0160008282546116539190612216565b9091555050604051849033907f1449c6dd7851abc30abf37f57715f492010519147cc2652fbc38202c18a6ee909061168c9087906121a3565b60405180910390a350505050565b6000828152600160205260409020805461010090046001600160a01b03166116d55760405163f5b9e66160e01b815260040160405180910390fd5b805461010090046001600160a01b0316331480159061172f57506040805160808101918290526002830180546001600160a01b0316825261172d92600490600386016020850180831161046f57505050505033611b31565b155b1561174d576040516392ae566760e01b815260040160405180910390fd5b600c0180546001600160a01b0319166001600160a01b039290921691909117905550565b60008085600181111561178657611786611d00565b14801561179f575063096601806001600160401b038516105b156117bd576040516344eb532b60e01b815260040160405180910390fd5b42600060018760018111156117d4576117d4611d00565b1480156117e857506001600160401b038616155b15611800576117f961012c836122c7565b905061180d565b61180a86836122c7565b90505b60008054908061181c836122ee565b9091555060008181526001602081905260409091208054929550918991839160ff191690838181111561185157611851611d00565b02179055508054610100600160e81b031916336101000267ffffffffffffffff60a81b191617600160a81b6001600160401b038581169190910291909117825560018201805467ffffffffffffffff19169184169190911790556118ba60028201876004611bfa565b506118ca60068201866004611bfa565b50600c8101805460ff60a01b1916600160a01b17905560005b60048110156119a957600087826004811061190057611900612307565b6020020160208101906119139190611f39565b90506001600160a01b0381161580159061195157506001600160a01b038116600090815260036020908152604080832089845290915290205460ff16155b156119a0576001600160a01b03811660008181526003602090815260408083208a84528252808320805460ff191660019081179091559383526002825282208054938401815582529020018690555b506001016118e3565b5060005b6004811015611a735760008682600481106119ca576119ca612307565b6020020160208101906119dd9190611f39565b90506001600160a01b03811615801590611a1b57506001600160a01b038116600090815260036020908152604080832089845290915290205460ff16155b15611a6a576001600160a01b03811660008181526003602090815260408083208a84528252808320805460ff191660019081179091559383526002825282208054938401815582529020018690555b506001016119ad565b50336001600160a01b0316847fc35ca41f3f50412d1adb779294533baa071bbe58b456b0fd5299eff46c17aaca8a8686604051611ab29392919061231d565b60405180910390a3505050949350505050565b6001600160a01b038116600090815260026020908152604091829020805483518184028101840190945280845260609392830182828015611b2557602002820191906000526020600020905b815481526020019060010190808311611b11575b50505050509050919050565b6000805b60048160ff161015611b8557826001600160a01b0316848260ff1660048110611b6057611b60612307565b60200201516001600160a01b031603611b7d576001915050610833565b600101611b35565b5060009392505050565b6060604482511015611bc257505060408051808201909152600b81526a18d85b1b0819985a5b195960aa1b602082015290565b600482019150818060200190518101906108339190612348565b60405180608001604052806004906020820280368337509192915050565b8260048101928215611c40579160200282015b82811115611c405781546001600160a01b0319166001600160a01b03843516178255602090920191600190910190611c0d565b50611c4c929150611c50565b5090565b5b80821115611c4c5760008155600101611c51565b60008060408385031215611c7857600080fd5b8235915060208301356001600160801b0381168114611c9657600080fd5b809150509250929050565b80356001600160a01b0381168114611cb857600080fd5b919050565b60008060408385031215611cd057600080fd5b611cd983611ca1565b946020939093013593505050565b600060208284031215611cf957600080fd5b5035919050565b634e487b7160e01b600052602160045260246000fd5b60028110611d3457634e487b7160e01b600052602160045260246000fd5b50565b8060005b6004811015611d635781516001600160a01b0316845260209384019390910190600101611d3b565b50505050565b6101e08101611d778b611d16565b8a82526001600160a01b038a1660208301526001600160401b03898116604084015288166060830152611dad6080830188611d37565b611dbb610100830187611d37565b84610180830152836101a08301528215156101c08301529a9950505050505050505050565b600080600060608486031215611df557600080fd5b8335925060208401359150611e0c60408501611ca1565b90509250925092565b6101008101611e238a611d16565b9881526001600160a01b0397881660208201526001600160401b039687166040820152949095166060850152608084019290925260a083015290921660c0830152151560e09091015290565b60008060408385031215611e8257600080fd5b50508035926020909101359150565b60008060408385031215611ea457600080fd5b82359150611eb460208401611ca1565b90509250929050565b806080810183101561083357600080fd5b6000806000806101408587031215611ee557600080fd5b843560028110611ef457600080fd5b935060208501356001600160401b0381168114611f1057600080fd5b9250611f1f8660408701611ebd565b9150611f2e8660c08701611ebd565b905092959194509250565b600060208284031215611f4b57600080fd5b611f5482611ca1565b9392505050565b6020808252825182820181905260009190848201906040850190845b81811015611f9357835183529284019291840191600101611f77565b50909695505050505050565b60609190911b6001600160601b031916815260140190565b60005b83811015611fd2578181015183820152602001611fba565b50506000910152565b60008151808452611ff3816020860160208601611fb7565b601f01601f19169290920160200192915050565b604081526000835161201881611d16565b806040840152506020840151604060608401526120386080840182611fdb565b91505060018060801b03831660208301529392505050565b60006020828403121561206257600080fd5b81518015158114611f5457600080fd5b600060033d111561208b5760046000803e5060005160e01c5b90565b634e487b7160e01b600052604160045260246000fd5b601f8201601f191681016001600160401b03811182821017156120c9576120c961208e565b6040525050565b600060443d10156120de5790565b6040516003193d81016004833e81513d6001600160401b03816024840111818411171561210d57505050505090565b82850191508151818111156121255750505050505090565b843d870101602082850101111561213f5750505050505090565b61214e602082860101876120a4565b509095945050505050565b6e03ab739ba30b5b29032b93937b91d1608d1b81526000825161218381600f850160208701611fb7565b91909101600f0192915050565b602081526000611f546020830184611fdb565b6001600160801b0391909116815260200190565b6d03ab73637b1b59032b93937b91d160951b8152600082516121e081600e850160208701611fb7565b91909101600e0192915050565b634e487b7160e01b600052601160045260246000fd5b81810381811115610833576108336121ed565b80820180821115610833576108336121ed565b6001600160a01b03929092168252602082015260400190565b60008251612254818460208701611fb7565b9190910192915050565b6b03637b1b59032b93937b91d160a51b81526000825161228581600c850160208701611fb7565b91909101600c0192915050565b6c039ba30b5b29032b93937b91d1609d1b8152600082516122ba81600d850160208701611fb7565b91909101600d0192915050565b6001600160401b038181168382160190808211156122e7576122e76121ed565b5092915050565b600060018201612300576123006121ed565b5060010190565b634e487b7160e01b600052603260045260246000fd5b6060810161232a85611d16565b9381526001600160401b039283166020820152911660409091015290565b60006020828403121561235a57600080fd5b81516001600160401b038082111561237157600080fd5b818401915084601f83011261238557600080fd5b8151818111156123975761239761208e565b60405191506123b0601f8201601f1916602001836120a4565b8082528560208285010111156123c557600080fd5b6123d6816020840160208601611fb7565b5094935050505056fea264697066735822122088edf6f54ed92ce11bf95116d942a4feaa1aac74d66b48d09a717902b981987264736f6c63430008180033",
  "devdoc": {
    "kind": "dev",
    "methods": {
      "createFund(uint8,uint64,address[4],address[4])": {
        "params": {
          "beneficiaryWallets": "Hasta 4 wallets beneficiarias",
          "durationSeconds": "Duracin en segundos (mn. 5 aos en segundos para PensionVoluntaria, sin mnimo para AhorroUniversitario)",
          "fundType": "PensionVoluntaria o AhorroUniversitario",
          "privilegedWallets": "Hasta 4 wallets con privilegio"
        }
      }
    },
    "title": "SavesJVN",
    "version": 1
  },
  "userdoc": {
    "kind": "user",
    "methods": {
      "createFund(uint8,uint64,address[4],address[4])": {
        "notice": "Crea un nuevo fondo con parmetros de tipo y duracin."
      },
      "depositNative(uint256)": {
        "notice": "Depsito usando moneda nativa (p.e. ASTR en Astar). Requiere token == address(0)."
      },
      "depositToken(uint256,uint256)": {
        "notice": "Depsito usando token ERC20 (p.e. cCOP en Celo). Requiere token != address(0) y aprobacin previa."
      },
      "getFundsByUser(address)": {
        "notice": "Devuelve los IDs de fondos en los que participa el usuario         ya sea como privilegiado o beneficiario."
      },
      "isUserInFund(address,uint256)": {
        "notice": "Indica si un usuario participa en un fondo especfico (privilegiado o beneficiario)."
      },
      "setDappTarget(uint256,address)": {
        "notice": "Configura el contrato dApp EVM objetivo para dApp staking (solo relevante en Astar/Shibuya).         Puede ser invocado por el owner del fondo o cualquier wallet privilegiada."
      }
    },
    "notice": "Contrato para fondos de ahorro con soporte multi-red:  - En Celo: depsitos con token ERC20 (cCOP)  - En Astar: depsitos con moneda nativa (ASTR) y \"staking\" contable con penalizacin por tiempo Importante: El \"staking\" aqu es interno del contrato (contable), no interacta con el sistema de dApp staking de Astar.",
    "version": 1
  },
  "storageLayout": {
    "storage": [
      {
        "astId": 314,
        "contract": "contracts/SavesJVN.sol:SavesJVN",
        "label": "nextFundId",
        "offset": 0,
        "slot": "0",
        "type": "t_uint256"
      },
      {
        "astId": 319,
        "contract": "contracts/SavesJVN.sol:SavesJVN",
        "label": "funds",
        "offset": 0,
        "slot": "1",
        "type": "t_mapping(t_uint256,t_struct(Fund)306_storage)"
      },
      {
        "astId": 324,
        "contract": "contracts/SavesJVN.sol:SavesJVN",
        "label": "fundsByUser",
        "offset": 0,
        "slot": "2",
        "type": "t_mapping(t_address,t_array(t_uint256)dyn_storage)"
      },
      {
        "astId": 330,
        "contract": "contracts/SavesJVN.sol:SavesJVN",
        "label": "userInFund",
        "offset": 0,
        "slot": "3",
        "type": "t_mapping(t_address,t_mapping(t_uint256,t_bool))"
      }
    ],
    "types": {
      "t_address": {
        "encoding": "inplace",
        "label": "address",
        "numberOfBytes": "20"
      },
      "t_array(t_address)4_storage": {
        "base": "t_address",
        "encoding": "inplace",
        "label": "address[4]",
        "numberOfBytes": "128"
      },
      "t_array(t_uint256)dyn_storage": {
        "base": "t_uint256",
        "encoding": "dynamic_array",
        "label": "uint256[]",
        "numberOfBytes": "32"
      },
      "t_bool": {
        "encoding": "inplace",
        "label": "bool",
        "numberOfBytes": "1"
      },
      "t_enum(FundType)280": {
        "encoding": "inplace",
        "label": "enum SavesJVN.FundType",
        "numberOfBytes": "1"
      },
      "t_mapping(t_address,t_array(t_uint256)dyn_storage)": {
        "encoding": "mapping",
        "key": "t_address",
        "label": "mapping(address => uint256[])",
        "numberOfBytes": "32",
        "value": "t_array(t_uint256)dyn_storage"
      },
      "t_mapping(t_address,t_mapping(t_uint256,t_bool))": {
        "encoding": "mapping",
        "key": "t_address",
        "label": "mapping(address => mapping(uint256 => bool))",
        "numberOfBytes": "32",
        "value": "t_mapping(t_uint256,t_bool)"
      },
      "t_mapping(t_uint256,t_bool)": {
        "encoding": "mapping",
        "key": "t_uint256",
        "label": "mapping(uint256 => bool)",
        "numberOfBytes": "32",
        "value": "t_bool"
      },
      "t_mapping(t_uint256,t_struct(Fund)306_storage)": {
        "encoding": "mapping",
        "key": "t_uint256",
        "label": "mapping(uint256 => struct SavesJVN.Fund)",
        "numberOfBytes": "32",
        "value": "t_struct(Fund)306_storage"
      },
      "t_struct(Fund)306_storage": {
        "encoding": "inplace",
        "label": "struct SavesJVN.Fund",
        "members": [
          {
            "astId": 283,
            "contract": "contracts/SavesJVN.sol:SavesJVN",
            "label": "fundType",
            "offset": 0,
            "slot": "0",
            "type": "t_enum(FundType)280"
          },
          {
            "astId": 285,
            "contract": "contracts/SavesJVN.sol:SavesJVN",
            "label": "owner",
            "offset": 1,
            "slot": "0",
            "type": "t_address"
          },
          {
            "astId": 287,
            "contract": "contracts/SavesJVN.sol:SavesJVN",
            "label": "startTime",
            "offset": 21,
            "slot": "0",
            "type": "t_uint64"
          },
          {
            "astId": 289,
            "contract": "contracts/SavesJVN.sol:SavesJVN",
            "label": "endTime",
            "offset": 0,
            "slot": "1",
            "type": "t_uint64"
          },
          {
            "astId": 293,
            "contract": "contracts/SavesJVN.sol:SavesJVN",
            "label": "privileged",
            "offset": 0,
            "slot": "2",
            "type": "t_array(t_address)4_storage"
          },
          {
            "astId": 297,
            "contract": "contracts/SavesJVN.sol:SavesJVN",
            "label": "beneficiaries",
            "offset": 0,
            "slot": "6",
            "type": "t_array(t_address)4_storage"
          },
          {
            "astId": 299,
            "contract": "contracts/SavesJVN.sol:SavesJVN",
            "label": "balance",
            "offset": 0,
            "slot": "10",
            "type": "t_uint256"
          },
          {
            "astId": 301,
            "contract": "contracts/SavesJVN.sol:SavesJVN",
            "label": "stakedBalance",
            "offset": 0,
            "slot": "11",
            "type": "t_uint256"
          },
          {
            "astId": 303,
            "contract": "contracts/SavesJVN.sol:SavesJVN",
            "label": "dappTarget",
            "offset": 0,
            "slot": "12",
            "type": "t_address"
          },
          {
            "astId": 305,
            "contract": "contracts/SavesJVN.sol:SavesJVN",
            "label": "active",
            "offset": 20,
            "slot": "12",
            "type": "t_bool"
          }
        ],
        "numberOfBytes": "416"
      },
      "t_uint256": {
        "encoding": "inplace",
        "label": "uint256",
        "numberOfBytes": "32"
      },
      "t_uint64": {
        "encoding": "inplace",
        "label": "uint64",
        "numberOfBytes": "8"
      }
    }
  }
}